{
  "abi": [
    {
      "inputs": [
        {
          "internalType": "address[]",
          "name": "pools",
          "type": "address[]"
        },
        {
          "internalType": "address",
          "name": "weth",
          "type": "address"
        },
        {
          "internalType": "address",
          "name": "factory",
          "type": "address"
        }
      ],
      "stateMutability": "nonpayable",
      "type": "constructor"
    },
    {
      "inputs": [
        {
          "internalType": "address",
          "name": "",
          "type": "address"
        }
      ],
      "name": "tokenToWethPrices",
      "outputs": [
        {
          "internalType": "uint128",
          "name": "",
          "type": "uint128"
        }
      ],
      "stateMutability": "view",
      "type": "function"
    }
  ],
  "bytecode": {
    "object": "0x60806040523480156200001157600080fd5b50604051620018cb380380620018cb833981810160405281019062000037919062000fa4565b6000835167ffffffffffffffff81111562000057576200005662000de0565b5b604051908082528060200260200182016040528015620000865781602001602082028036833780820191505090505b50905060005b845181101562000338576000858281518110620000ae57620000ad6200101f565b5b6020026020010151905060008173ffffffffffffffffffffffffffffffffffffffff163b0362000103576000838381518110620000f057620000ef6200101f565b5b6020026020010181815250505062000324565b60008173ffffffffffffffffffffffffffffffffffffffff16630dfe16816040518163ffffffff1660e01b8152600401602060405180830381865afa15801562000151573d6000803e3d6000fd5b505050506040513d601f19601f820116820180604052508101906200017791906200104e565b905060008273ffffffffffffffffffffffffffffffffffffffff1663d21220a76040518163ffffffff1660e01b8152600401602060405180830381865afa158015620001c7573d6000803e3d6000fd5b505050506040513d601f19601f82011682018060405250810190620001ed91906200104e565b905060008273ffffffffffffffffffffffffffffffffffffffff163b14806200022d575060008173ffffffffffffffffffffffffffffffffffffffff163b145b15620002605760008585815181106200024b576200024a6200101f565b5b60200260200101818152505050505062000324565b60008062000274856200034360201b60201c565b9150915060006200028e858b858c620005ef60201b60201c565b90506000620002a6858c858d620005ef60201b60201c565b905060008214158015620002bb575060008114155b15620002f7578082620002cf9190620010b9565b898981518110620002e557620002e46200101f565b5b6020026020010181815250506200031c565b60008989815181106200030f576200030e6200101f565b5b6020026020010181815250505b505050505050505b806200033090620010f4565b90506200008c565b505050505062001720565b6000806000808473ffffffffffffffffffffffffffffffffffffffff16630902f1ac6040518163ffffffff1660e01b8152600401606060405180830381865afa15801562000395573d6000803e3d6000fd5b505050506040513d601f19601f82011682018060405250810190620003bb9190620011cd565b506dffffffffffffffffffffffffffff1691506dffffffffffffffffffffffffffff16915060008573ffffffffffffffffffffffffffffffffffffffff16630dfe16816040518163ffffffff1660e01b8152600401602060405180830381865afa1580156200042e573d6000803e3d6000fd5b505050506040513d601f19601f820116820180604052508101906200045491906200104e565b905060008673ffffffffffffffffffffffffffffffffffffffff1663d21220a76040518163ffffffff1660e01b8152600401602060405180830381865afa158015620004a4573d6000803e3d6000fd5b505050506040513d601f19601f82011682018060405250810190620004ca91906200104e565b9050600080620004e084620008dd60201b60201c565b91509150600080620004f885620008dd60201b60201c565b91509150828015620005075750805b15620005e25760128460ff1611156200054a5760128462000529919062001236565b600a620005379190620013c6565b8862000544919062001446565b62000575565b83601262000559919062001236565b600a620005679190620013c6565b886200057491906200147e565b5b995060128260ff161115620005b45760128262000593919062001236565b600a620005a19190620013c6565b87620005ae919062001446565b620005df565b816012620005c3919062001236565b600a620005d19190620013c6565b87620005de91906200147e565b5b98505b5050505050505050915091565b60008373ffffffffffffffffffffffffffffffffffffffff168573ffffffffffffffffffffffffffffffffffffffff16036200062e57829050620008d5565b60008060008773ffffffffffffffffffffffffffffffffffffffff1673ffffffffffffffffffffffffffffffffffffffff16815260200190815260200160002060009054906101000a90046fffffffffffffffffffffffffffffffff1690506001816fffffffffffffffffffffffffffffffff1603620006b3576000915050620008d5565b6000816fffffffffffffffffffffffffffffffff1614620006e957620006e0818562000a5360201b60201c565b915050620008d5565b60008573ffffffffffffffffffffffffffffffffffffffff168773ffffffffffffffffffffffffffffffffffffffff1610905060008473ffffffffffffffffffffffffffffffffffffffff1663e6a439058362000747578862000749565b895b8462000756578a62000758565b895b6040518363ffffffff1660e01b815260040162000777929190620014da565b602060405180830381865afa15801562000795573d6000803e3d6000fd5b505050506040513d601f19601f82011682018060405250810190620007bb91906200104e565b9050600073ffffffffffffffffffffffffffffffffffffffff168173ffffffffffffffffffffffffffffffffffffffff1603620008755760016000808a73ffffffffffffffffffffffffffffffffffffffff1673ffffffffffffffffffffffffffffffffffffffff16815260200190815260200160002060006101000a8154816fffffffffffffffffffffffffffffffff02191690836fffffffffffffffffffffffffffffffff16021790555060009350505050620008d5565b60008062000889836200034360201b60201c565b91509150620008bb846200089e5782620008a0565b815b85620008ad5782620008af565b835b62000bad60201b60201c565b6fffffffffffffffffffffffffffffffff16955050505050505b949350505050565b6000806000808473ffffffffffffffffffffffffffffffffffffffff166040516024016040516020818303038152906040527f313ce567000000000000000000000000000000000000000000000000000000007bffffffffffffffffffffffffffffffffffffffffffffffffffffffff19166020820180517bffffffffffffffffffffffffffffffffffffffffffffffffffffffff83818316178352505050506040516200098c919062001580565b6000604051808303816000865af19150503d8060008114620009cb576040519150601f19603f3d011682016040523d82523d6000602084013e620009d0565b606091505b509150915081620009ea5760008093509350505062000a4e565b602081511462000a035760008093509350505062000a4e565b60008180602001905181019062000a1b9190620015ca565b9050600081148062000a2d575060ff81115b1562000a43576000809450945050505062000a4e565b806001945094505050505b915091565b60008082148062000a7657506000836fffffffffffffffffffffffffffffffff16145b1562000a86576000905062000ba7565b600060406fffffffffffffffffffffffffffffffff8416856fffffffffffffffffffffffffffffffff1602901c90506000608084901c856fffffffffffffffffffffffffffffffff1602905077ffffffffffffffffffffffffffffffffffffffffffffffff81111562000b30576040517f08c379a000000000000000000000000000000000000000000000000000000000815260040162000b27906200165d565b60405180910390fd5b604081901b9050817fffffffffffffffffffffffffffffffffffffffffffffffffffffffffffffffff0381111562000b9f576040517f08c379a000000000000000000000000000000000000000000000000000000000815260040162000b9690620016cf565b60405180910390fd5b818101925050505b92915050565b600080820362000bc1576000905062000db0565b600077ffffffffffffffffffffffffffffffffffffffffffffffff841162000c035782604085901b8162000bfa5762000bf962001417565b5b04905062000d87565b600060c09050600060c086901c9050640100000000811062000c2d57602081901c90506020820191505b62010000811062000c4657601081901c90506010820191505b610100811062000c5e57600881901c90506008820191505b6010811062000c7557600481901c90506004820191505b6004811062000c8c57600281901c90506002820191505b6002811062000c9c576001820191505b600160bf830360018703901c018260ff0387901b8162000cc15762000cc062001417565b5b0492506fffffffffffffffffffffffffffffffff83111562000cea576000935050505062000db0565b6000608086901c8402905060006fffffffffffffffffffffffffffffffff871685029050600060c089901c9050600060408a901b90508281101562000d30576001820391505b8281039050608084901b92508281101562000d4c576001820391505b8281039050608084901c821462000d685762000d67620016f1565b5b88818162000d7b5762000d7a62001417565b5b04870196505050505050505b6fffffffffffffffffffffffffffffffff81111562000dab57600091505062000db0565b809150505b92915050565b6000604051905090565b600080fd5b600080fd5b600080fd5b6000601f19601f8301169050919050565b7f4e487b7100000000000000000000000000000000000000000000000000000000600052604160045260246000fd5b62000e1a8262000dcf565b810181811067ffffffffffffffff8211171562000e3c5762000e3b62000de0565b5b80604052505050565b600062000e5162000db6565b905062000e5f828262000e0f565b919050565b600067ffffffffffffffff82111562000e825762000e8162000de0565b5b602082029050602081019050919050565b600080fd5b600073ffffffffffffffffffffffffffffffffffffffff82169050919050565b600062000ec58262000e98565b9050919050565b62000ed78162000eb8565b811462000ee357600080fd5b50565b60008151905062000ef78162000ecc565b92915050565b600062000f1462000f0e8462000e64565b62000e45565b9050808382526020820190506020840283018581111562000f3a5762000f3962000e93565b5b835b8181101562000f67578062000f52888262000ee6565b84526020840193505060208101905062000f3c565b5050509392505050565b600082601f83011262000f895762000f8862000dca565b5b815162000f9b84826020860162000efd565b91505092915050565b60008060006060848603121562000fc05762000fbf62000dc0565b5b600084015167ffffffffffffffff81111562000fe15762000fe062000dc5565b5b62000fef8682870162000f71565b9350506020620010028682870162000ee6565b9250506040620010158682870162000ee6565b9150509250925092565b7f4e487b7100000000000000000000000000000000000000000000000000000000600052603260045260246000fd5b60006020828403121562001067576200106662000dc0565b5b6000620010778482850162000ee6565b91505092915050565b6000819050919050565b7f4e487b7100000000000000000000000000000000000000000000000000000000600052601160045260246000fd5b6000620010c68262001080565b9150620010d38362001080565b9250828201905080821115620010ee57620010ed6200108a565b5b92915050565b6000620011018262001080565b91507fffffffffffffffffffffffffffffffffffffffffffffffffffffffffffffffff82036200113657620011356200108a565b5b600182019050919050565b60006dffffffffffffffffffffffffffff82169050919050565b620011668162001141565b81146200117257600080fd5b50565b60008151905062001186816200115b565b92915050565b600063ffffffff82169050919050565b620011a7816200118c565b8114620011b357600080fd5b50565b600081519050620011c7816200119c565b92915050565b600080600060608486031215620011e957620011e862000dc0565b5b6000620011f98682870162001175565b93505060206200120c8682870162001175565b92505060406200121f86828701620011b6565b9150509250925092565b600060ff82169050919050565b6000620012438262001229565b9150620012508362001229565b9250828203905060ff8111156200126c576200126b6200108a565b5b92915050565b60008160011c9050919050565b6000808291508390505b6001851115620012d157808604811115620012a957620012a86200108a565b5b6001851615620012b95780820291505b8081029050620012c98562001272565b945062001289565b94509492505050565b600082620012ec5760019050620013bf565b81620012fc5760009050620013bf565b8160018114620013155760028114620013205762001356565b6001915050620013bf565b60ff8411156200133557620013346200108a565b5b8360020a9150848211156200134f576200134e6200108a565b5b50620013bf565b5060208310610133831016604e8410600b8410161715620013905782820a9050838111156200138a57620013896200108a565b5b620013bf565b6200139f84848460016200127f565b92509050818404811115620013b957620013b86200108a565b5b81810290505b9392505050565b6000620013d38262001080565b9150620013e08362001229565b92506200140f7fffffffffffffffffffffffffffffffffffffffffffffffffffffffffffffffff8484620012da565b905092915050565b7f4e487b7100000000000000000000000000000000000000000000000000000000600052601260045260246000fd5b6000620014538262001080565b9150620014608362001080565b92508262001473576200147262001417565b5b828204905092915050565b60006200148b8262001080565b9150620014988362001080565b9250828202620014a88162001080565b91508282048414831517620014c257620014c16200108a565b5b5092915050565b620014d48162000eb8565b82525050565b6000604082019050620014f16000830185620014c9565b620015006020830184620014c9565b9392505050565b600081519050919050565b600081905092915050565b60005b838110156200153d57808201518184015260208101905062001520565b60008484015250505050565b6000620015568262001507565b62001562818562001512565b9350620015748185602086016200151d565b80840191505092915050565b60006200158e828462001549565b915081905092915050565b620015a48162001080565b8114620015b057600080fd5b50565b600081519050620015c48162001599565b92915050565b600060208284031215620015e357620015e262000dc0565b5b6000620015f384828501620015b3565b91505092915050565b600082825260208201905092915050565b7f6f766572666c6f772d3020696e206d756c363475000000000000000000000000600082015250565b600062001645601483620015fc565b915062001652826200160d565b602082019050919050565b60006020820190508181036000830152620016788162001636565b9050919050565b7f6f766572666c6f772d3120696e206d756c363475000000000000000000000000600082015250565b6000620016b7601483620015fc565b9150620016c4826200167f565b602082019050919050565b60006020820190508181036000830152620016ea81620016a8565b9050919050565b7f4e487b7100000000000000000000000000000000000000000000000000000000600052600160045260246000fd5b61019b80620017306000396000f3fe608060405234801561001057600080fd5b506004361061002b5760003560e01c80630ed45c8e14610030575b600080fd5b61004a600480360381019061004591906100f2565b610060565b604051610057919061014a565b60405180910390f35b60006020528060005260406000206000915054906101000a90046fffffffffffffffffffffffffffffffff1681565b600080fd5b600073ffffffffffffffffffffffffffffffffffffffff82169050919050565b60006100bf82610094565b9050919050565b6100cf816100b4565b81146100da57600080fd5b50565b6000813590506100ec816100c6565b92915050565b6000602082840312156101085761010761008f565b5b6000610116848285016100dd565b91505092915050565b60006fffffffffffffffffffffffffffffffff82169050919050565b6101448161011f565b82525050565b600060208201905061015f600083018461013b565b9291505056fea2646970667358221220980a8ed626a4449dacd40fdd7e517cad8973be80d6cec05f74aea158c9e8a7c064736f6c63430008150033",
    "linkReferences": {}
  },
  "methodIdentifiers": {
    "tokenToWethPrices(address)": "0ed45c8e"
  },
  "id": 2
}