{
  "abi": [
    {
      "inputs": [
        {
          "internalType": "address[]",
          "name": "pools",
          "type": "address[]"
        },
        {
          "internalType": "address",
          "name": "weth",
          "type": "address"
        },
        {
          "internalType": "address",
          "name": "factory",
          "type": "address"
        }
      ],
      "stateMutability": "nonpayable",
      "type": "constructor"
    },
    {
      "inputs": [
        {
          "internalType": "address",
          "name": "",
          "type": "address"
        }
      ],
      "name": "tokenToWethPrices",
      "outputs": [
        {
          "internalType": "uint128",
          "name": "",
          "type": "uint128"
        }
      ],
      "stateMutability": "view",
      "type": "function"
    }
  ],
  "bytecode": {
    "object": "0x60806040523480156200001157600080fd5b50604051620018b3380380620018b3833981810160405281019062000037919062001044565b6000835167ffffffffffffffff81111562000057576200005662000e80565b5b604051908082528060200260200182016040528015620000865781602001602082028036833780820191505090505b50905060005b845181101562000338576000858281518110620000ae57620000ad620010bf565b5b6020026020010151905060008173ffffffffffffffffffffffffffffffffffffffff163b0362000103576000838381518110620000f057620000ef620010bf565b5b6020026020010181815250505062000324565b60008173ffffffffffffffffffffffffffffffffffffffff16630dfe16816040518163ffffffff1660e01b8152600401602060405180830381865afa15801562000151573d6000803e3d6000fd5b505050506040513d601f19601f82011682018060405250810190620001779190620010ee565b905060008273ffffffffffffffffffffffffffffffffffffffff1663d21220a76040518163ffffffff1660e01b8152600401602060405180830381865afa158015620001c7573d6000803e3d6000fd5b505050506040513d601f19601f82011682018060405250810190620001ed9190620010ee565b905060008273ffffffffffffffffffffffffffffffffffffffff163b14806200022d575060008173ffffffffffffffffffffffffffffffffffffffff163b145b15620002605760008585815181106200024b576200024a620010bf565b5b60200260200101818152505050505062000324565b60008062000274856200036960201b60201c565b9150915060006200028e858b858c6200061560201b60201c565b90506000620002a6858c858d6200061560201b60201c565b905060008214158015620002bb575060008114155b15620002f7578082620002cf919062001159565b898981518110620002e557620002e4620010bf565b5b6020026020010181815250506200031c565b60008989815181106200030f576200030e620010bf565b5b6020026020010181815250505b505050505050505b80620003309062001194565b90506200008c565b506000816040516020016200034e9190620012af565b60405160208183030381529060405290506020810180590381f35b6000806000808473ffffffffffffffffffffffffffffffffffffffff16630902f1ac6040518163ffffffff1660e01b8152600401606060405180830381865afa158015620003bb573d6000803e3d6000fd5b505050506040513d601f19601f82011682018060405250810190620003e191906200135f565b506dffffffffffffffffffffffffffff1691506dffffffffffffffffffffffffffff16915060008573ffffffffffffffffffffffffffffffffffffffff16630dfe16816040518163ffffffff1660e01b8152600401602060405180830381865afa15801562000454573d6000803e3d6000fd5b505050506040513d601f19601f820116820180604052508101906200047a9190620010ee565b905060008673ffffffffffffffffffffffffffffffffffffffff1663d21220a76040518163ffffffff1660e01b8152600401602060405180830381865afa158015620004ca573d6000803e3d6000fd5b505050506040513d601f19601f82011682018060405250810190620004f09190620010ee565b905060008062000506846200097d60201b60201c565b915091506000806200051e856200097d60201b60201c565b915091508280156200052d5750805b15620006085760128460ff16111562000570576012846200054f9190620013c8565b600a6200055d919062001558565b886200056a9190620015d8565b6200059b565b8360126200057f9190620013c8565b600a6200058d919062001558565b886200059a919062001610565b5b995060128260ff161115620005da57601282620005b99190620013c8565b600a620005c7919062001558565b87620005d49190620015d8565b62000605565b816012620005e99190620013c8565b600a620005f7919062001558565b8762000604919062001610565b5b98505b5050505050505050915091565b60008373ffffffffffffffffffffffffffffffffffffffff168573ffffffffffffffffffffffffffffffffffffffff1603620006545782905062000975565b60008060008773ffffffffffffffffffffffffffffffffffffffff1673ffffffffffffffffffffffffffffffffffffffff16815260200190815260200160002060009054906101000a90046fffffffffffffffffffffffffffffffff1690506001816fffffffffffffffffffffffffffffffff1603620006d957600091505062000975565b6000816fffffffffffffffffffffffffffffffff16146200070f5762000706818562000af360201b60201c565b91505062000975565b60008573ffffffffffffffffffffffffffffffffffffffff168773ffffffffffffffffffffffffffffffffffffffff1610905060008473ffffffffffffffffffffffffffffffffffffffff1663e6a43905836200076d57886200076f565b895b846200077c578a6200077e565b895b6040518363ffffffff1660e01b81526004016200079d9291906200166c565b602060405180830381865afa158015620007bb573d6000803e3d6000fd5b505050506040513d601f19601f82011682018060405250810190620007e19190620010ee565b9050600073ffffffffffffffffffffffffffffffffffffffff168173ffffffffffffffffffffffffffffffffffffffff16036200089b5760016000808a73ffffffffffffffffffffffffffffffffffffffff1673ffffffffffffffffffffffffffffffffffffffff16815260200190815260200160002060006101000a8154816fffffffffffffffffffffffffffffffff02191690836fffffffffffffffffffffffffffffffff1602179055506000935050505062000975565b600080620008af836200036960201b60201c565b915091506000620008e385620008c65783620008c8565b825b86620008d55783620008d7565b845b62000c4d60201b60201c565b9050806000808d73ffffffffffffffffffffffffffffffffffffffff1673ffffffffffffffffffffffffffffffffffffffff16815260200190815260200160002060006101000a8154816fffffffffffffffffffffffffffffffff02191690836fffffffffffffffffffffffffffffffff1602179055506200096c818a62000af360201b60201c565b96505050505050505b949350505050565b6000806000808473ffffffffffffffffffffffffffffffffffffffff166040516024016040516020818303038152906040527f313ce567000000000000000000000000000000000000000000000000000000007bffffffffffffffffffffffffffffffffffffffffffffffffffffffff19166020820180517bffffffffffffffffffffffffffffffffffffffffffffffffffffffff838183161783525050505060405162000a2c919062001712565b6000604051808303816000865af19150503d806000811462000a6b576040519150601f19603f3d011682016040523d82523d6000602084013e62000a70565b606091505b50915091508162000a8a5760008093509350505062000aee565b602081511462000aa35760008093509350505062000aee565b60008180602001905181019062000abb91906200175c565b9050600081148062000acd575060ff81115b1562000ae3576000809450945050505062000aee565b806001945094505050505b915091565b60008082148062000b1657506000836fffffffffffffffffffffffffffffffff16145b1562000b26576000905062000c47565b600060406fffffffffffffffffffffffffffffffff8416856fffffffffffffffffffffffffffffffff1602901c90506000608084901c856fffffffffffffffffffffffffffffffff1602905077ffffffffffffffffffffffffffffffffffffffffffffffff81111562000bd0576040517f08c379a000000000000000000000000000000000000000000000000000000000815260040162000bc790620017ef565b60405180910390fd5b604081901b9050817fffffffffffffffffffffffffffffffffffffffffffffffffffffffffffffffff0381111562000c3f576040517f08c379a000000000000000000000000000000000000000000000000000000000815260040162000c369062001861565b60405180910390fd5b818101925050505b92915050565b600080820362000c61576000905062000e50565b600077ffffffffffffffffffffffffffffffffffffffffffffffff841162000ca35782604085901b8162000c9a5762000c99620015a9565b5b04905062000e27565b600060c09050600060c086901c9050640100000000811062000ccd57602081901c90506020820191505b62010000811062000ce657601081901c90506010820191505b610100811062000cfe57600881901c90506008820191505b6010811062000d1557600481901c90506004820191505b6004811062000d2c57600281901c90506002820191505b6002811062000d3c576001820191505b600160bf830360018703901c018260ff0387901b8162000d615762000d60620015a9565b5b0492506fffffffffffffffffffffffffffffffff83111562000d8a576000935050505062000e50565b6000608086901c8402905060006fffffffffffffffffffffffffffffffff871685029050600060c089901c9050600060408a901b90508281101562000dd0576001820391505b8281039050608084901b92508281101562000dec576001820391505b8281039050608084901c821462000e085762000e0762001883565b5b88818162000e1b5762000e1a620015a9565b5b04870196505050505050505b6fffffffffffffffffffffffffffffffff81111562000e4b57600091505062000e50565b809150505b92915050565b6000604051905090565b600080fd5b600080fd5b600080fd5b6000601f19601f8301169050919050565b7f4e487b7100000000000000000000000000000000000000000000000000000000600052604160045260246000fd5b62000eba8262000e6f565b810181811067ffffffffffffffff8211171562000edc5762000edb62000e80565b5b80604052505050565b600062000ef162000e56565b905062000eff828262000eaf565b919050565b600067ffffffffffffffff82111562000f225762000f2162000e80565b5b602082029050602081019050919050565b600080fd5b600073ffffffffffffffffffffffffffffffffffffffff82169050919050565b600062000f658262000f38565b9050919050565b62000f778162000f58565b811462000f8357600080fd5b50565b60008151905062000f978162000f6c565b92915050565b600062000fb462000fae8462000f04565b62000ee5565b9050808382526020820190506020840283018581111562000fda5762000fd962000f33565b5b835b8181101562001007578062000ff2888262000f86565b84526020840193505060208101905062000fdc565b5050509392505050565b600082601f83011262001029576200102862000e6a565b5b81516200103b84826020860162000f9d565b91505092915050565b60008060006060848603121562001060576200105f62000e60565b5b600084015167ffffffffffffffff81111562001081576200108062000e65565b5b6200108f8682870162001011565b9350506020620010a28682870162000f86565b9250506040620010b58682870162000f86565b9150509250925092565b7f4e487b7100000000000000000000000000000000000000000000000000000000600052603260045260246000fd5b60006020828403121562001107576200110662000e60565b5b6000620011178482850162000f86565b91505092915050565b6000819050919050565b7f4e487b7100000000000000000000000000000000000000000000000000000000600052601160045260246000fd5b6000620011668262001120565b9150620011738362001120565b92508282019050808211156200118e576200118d6200112a565b5b92915050565b6000620011a18262001120565b91507fffffffffffffffffffffffffffffffffffffffffffffffffffffffffffffffff8203620011d657620011d56200112a565b5b600182019050919050565b600081519050919050565b600082825260208201905092915050565b6000819050602082019050919050565b620012188162001120565b82525050565b60006200122c83836200120d565b60208301905092915050565b6000602082019050919050565b60006200125282620011e1565b6200125e8185620011ec565b93506200126b83620011fd565b8060005b83811015620012a25781516200128688826200121e565b9750620012938362001238565b9250506001810190506200126f565b5085935050505092915050565b60006020820190508181036000830152620012cb818462001245565b905092915050565b60006dffffffffffffffffffffffffffff82169050919050565b620012f881620012d3565b81146200130457600080fd5b50565b6000815190506200131881620012ed565b92915050565b600063ffffffff82169050919050565b62001339816200131e565b81146200134557600080fd5b50565b60008151905062001359816200132e565b92915050565b6000806000606084860312156200137b576200137a62000e60565b5b60006200138b8682870162001307565b93505060206200139e8682870162001307565b9250506040620013b18682870162001348565b9150509250925092565b600060ff82169050919050565b6000620013d582620013bb565b9150620013e283620013bb565b9250828203905060ff811115620013fe57620013fd6200112a565b5b92915050565b60008160011c9050919050565b6000808291508390505b600185111562001463578086048111156200143b576200143a6200112a565b5b60018516156200144b5780820291505b80810290506200145b8562001404565b94506200141b565b94509492505050565b6000826200147e576001905062001551565b816200148e576000905062001551565b8160018114620014a75760028114620014b257620014e8565b600191505062001551565b60ff841115620014c757620014c66200112a565b5b8360020a915084821115620014e157620014e06200112a565b5b5062001551565b5060208310610133831016604e8410600b8410161715620015225782820a9050838111156200151c576200151b6200112a565b5b62001551565b62001531848484600162001411565b925090508184048111156200154b576200154a6200112a565b5b81810290505b9392505050565b6000620015658262001120565b91506200157283620013bb565b9250620015a17fffffffffffffffffffffffffffffffffffffffffffffffffffffffffffffffff84846200146c565b905092915050565b7f4e487b7100000000000000000000000000000000000000000000000000000000600052601260045260246000fd5b6000620015e58262001120565b9150620015f28362001120565b925082620016055762001604620015a9565b5b828204905092915050565b60006200161d8262001120565b91506200162a8362001120565b92508282026200163a8162001120565b915082820484148315176200165457620016536200112a565b5b5092915050565b620016668162000f58565b82525050565b60006040820190506200168360008301856200165b565b6200169260208301846200165b565b9392505050565b600081519050919050565b600081905092915050565b60005b83811015620016cf578082015181840152602081019050620016b2565b60008484015250505050565b6000620016e88262001699565b620016f48185620016a4565b935062001706818560208601620016af565b80840191505092915050565b6000620017208284620016db565b915081905092915050565b620017368162001120565b81146200174257600080fd5b50565b60008151905062001756816200172b565b92915050565b60006020828403121562001775576200177462000e60565b5b6000620017858482850162001745565b91505092915050565b600082825260208201905092915050565b7f6f766572666c6f772d3020696e206d756c363475000000000000000000000000600082015250565b6000620017d76014836200178e565b9150620017e4826200179f565b602082019050919050565b600060208201905081810360008301526200180a81620017c8565b9050919050565b7f6f766572666c6f772d3120696e206d756c363475000000000000000000000000600082015250565b6000620018496014836200178e565b9150620018568262001811565b602082019050919050565b600060208201905081810360008301526200187c816200183a565b9050919050565b7f4e487b7100000000000000000000000000000000000000000000000000000000600052600160045260246000fdfe",
    "linkReferences": {}
  },
  "deployedBytecode": {
    "object": "0x608060405234801561001057600080fd5b506004361061002b5760003560e01c80630ed45c8e14610030575b600080fd5b61004a600480360381019061004591906100f2565b610060565b604051610057919061014a565b60405180910390f35b60006020528060005260406000206000915054906101000a90046fffffffffffffffffffffffffffffffff1681565b600080fd5b600073ffffffffffffffffffffffffffffffffffffffff82169050919050565b60006100bf82610094565b9050919050565b6100cf816100b4565b81146100da57600080fd5b50565b6000813590506100ec816100c6565b92915050565b6000602082840312156101085761010761008f565b5b6000610116848285016100dd565b91505092915050565b60006fffffffffffffffffffffffffffffffff82169050919050565b6101448161011f565b82525050565b600060208201905061015f600083018461013b565b9291505056fea26469706673582212207005d92a693c4337eb927971204f7884f4faf31c25b8283cca8d70347a6838c764736f6c63430008150033",
    "linkReferences": {}
  },
  "methodIdentifiers": {
    "tokenToWethPrices(address)": "0ed45c8e"
  },
  "id": 2
}