{
  "abi": [
    {
      "inputs": [
        {
          "internalType": "address[]",
          "name": "pools",
          "type": "address[]"
        },
        {
          "internalType": "address",
          "name": "weth",
          "type": "address"
        },
        {
          "internalType": "address",
          "name": "factory",
          "type": "address"
        }
      ],
      "stateMutability": "nonpayable",
      "type": "constructor"
    },
    {
      "inputs": [
        {
          "internalType": "address",
          "name": "",
          "type": "address"
        }
      ],
      "name": "tokenToWethPrices",
      "outputs": [
        {
          "internalType": "uint128",
          "name": "",
          "type": "uint128"
        }
      ],
      "stateMutability": "view",
      "type": "function"
    }
  ],
  "bytecode": {
    "object": "0x60806040523480156200001157600080fd5b50604051620017fb380380620017fb8339818101604052810190620000379190620010b0565b6000835167ffffffffffffffff81111562000057576200005662000eec565b5b604051908082528060200260200182016040528015620000865781602001602082028036833780820191505090505b50905060005b845181101562000338576000858281518110620000ae57620000ad6200112b565b5b6020026020010151905060008173ffffffffffffffffffffffffffffffffffffffff163b0362000103576000838381518110620000f057620000ef6200112b565b5b6020026020010181815250505062000324565b60008173ffffffffffffffffffffffffffffffffffffffff16630dfe16816040518163ffffffff1660e01b8152600401602060405180830381865afa15801562000151573d6000803e3d6000fd5b505050506040513d601f19601f820116820180604052508101906200017791906200115a565b905060008273ffffffffffffffffffffffffffffffffffffffff1663d21220a76040518163ffffffff1660e01b8152600401602060405180830381865afa158015620001c7573d6000803e3d6000fd5b505050506040513d601f19601f82011682018060405250810190620001ed91906200115a565b905060008273ffffffffffffffffffffffffffffffffffffffff163b14806200022d575060008173ffffffffffffffffffffffffffffffffffffffff163b145b15620002605760008585815181106200024b576200024a6200112b565b5b60200260200101818152505050505062000324565b60008062000274856200036960201b60201c565b9150915060006200028e858b858c6200061560201b60201c565b90506000620002a6858c858d6200061560201b60201c565b905060008214158015620002bb575060008114155b15620002f7578082620002cf9190620011c5565b898981518110620002e557620002e46200112b565b5b6020026020010181815250506200031c565b60008989815181106200030f576200030e6200112b565b5b6020026020010181815250505b505050505050505b80620003309062001200565b90506200008c565b506000816040516020016200034e91906200131b565b60405160208183030381529060405290506020810180590381f35b6000806000808473ffffffffffffffffffffffffffffffffffffffff16630902f1ac6040518163ffffffff1660e01b8152600401606060405180830381865afa158015620003bb573d6000803e3d6000fd5b505050506040513d601f19601f82011682018060405250810190620003e19190620013cb565b506dffffffffffffffffffffffffffff1691506dffffffffffffffffffffffffffff16915060008573ffffffffffffffffffffffffffffffffffffffff16630dfe16816040518163ffffffff1660e01b8152600401602060405180830381865afa15801562000454573d6000803e3d6000fd5b505050506040513d601f19601f820116820180604052508101906200047a91906200115a565b905060008673ffffffffffffffffffffffffffffffffffffffff1663d21220a76040518163ffffffff1660e01b8152600401602060405180830381865afa158015620004ca573d6000803e3d6000fd5b505050506040513d601f19601f82011682018060405250810190620004f091906200115a565b90506000806200050684620009c960201b60201c565b915091506000806200051e85620009c960201b60201c565b915091508280156200052d5750805b15620006085760128460ff16111562000570576012846200054f919062001434565b600a6200055d9190620015c4565b886200056a919062001644565b6200059b565b8360126200057f919062001434565b600a6200058d9190620015c4565b886200059a91906200167c565b5b995060128260ff161115620005da57601282620005b9919062001434565b600a620005c79190620015c4565b87620005d4919062001644565b62000605565b816012620005e9919062001434565b600a620005f79190620015c4565b876200060491906200167c565b5b98505b5050505050505050915091565b60008373ffffffffffffffffffffffffffffffffffffffff168573ffffffffffffffffffffffffffffffffffffffff16036200065457829050620009c1565b60008060008773ffffffffffffffffffffffffffffffffffffffff1673ffffffffffffffffffffffffffffffffffffffff16815260200190815260200160002060009054906101000a90046fffffffffffffffffffffffffffffffff1690506001816fffffffffffffffffffffffffffffffff1603620006d9576000915050620009c1565b6000816fffffffffffffffffffffffffffffffff16146200070f5762000706818562000b3f60201b60201c565b915050620009c1565b60008573ffffffffffffffffffffffffffffffffffffffff168773ffffffffffffffffffffffffffffffffffffffff1610905060008473ffffffffffffffffffffffffffffffffffffffff1663e6a43905836200076d57886200076f565b895b846200077c578a6200077e565b895b6040518363ffffffff1660e01b81526004016200079d929190620016d8565b602060405180830381865afa158015620007bb573d6000803e3d6000fd5b505050506040513d601f19601f82011682018060405250810190620007e191906200115a565b9050600073ffffffffffffffffffffffffffffffffffffffff168173ffffffffffffffffffffffffffffffffffffffff16036200089b5760016000808a73ffffffffffffffffffffffffffffffffffffffff1673ffffffffffffffffffffffffffffffffffffffff16815260200190815260200160002060006101000a8154816fffffffffffffffffffffffffffffffff02191690836fffffffffffffffffffffffffffffffff16021790555060009350505050620009c1565b600080620008af836200036960201b60201c565b915091508315620008df5766038d7ea4c68000811015620008d957600095505050505050620009c1565b620008ff565b66038d7ea4c68000821015620008fe57600095505050505050620009c1565b5b60006200092f8562000912578362000914565b825b8662000921578362000923565b845b62000bfe60201b60201c565b9050806000808d73ffffffffffffffffffffffffffffffffffffffff1673ffffffffffffffffffffffffffffffffffffffff16815260200190815260200160002060006101000a8154816fffffffffffffffffffffffffffffffff02191690836fffffffffffffffffffffffffffffffff160217905550620009b8818a62000b3f60201b60201c565b96505050505050505b949350505050565b6000806000808473ffffffffffffffffffffffffffffffffffffffff166040516024016040516020818303038152906040527f313ce567000000000000000000000000000000000000000000000000000000007bffffffffffffffffffffffffffffffffffffffffffffffffffffffff19166020820180517bffffffffffffffffffffffffffffffffffffffffffffffffffffffff838183161783525050505060405162000a7891906200177e565b6000604051808303816000865af19150503d806000811462000ab7576040519150601f19603f3d011682016040523d82523d6000602084013e62000abc565b606091505b50915091508162000ad65760008093509350505062000b3a565b602081511462000aef5760008093509350505062000b3a565b60008180602001905181019062000b079190620017c8565b9050600081148062000b19575060ff81115b1562000b2f576000809450945050505062000b3a565b806001945094505050505b915091565b600080820362000b53576000905062000bf8565b600083600f0b121562000b6557600080fd5b600060406fffffffffffffffffffffffffffffffff841685600f0b02901c90506000608084901c85600f0b02905077ffffffffffffffffffffffffffffffffffffffffffffffff81111562000bb957600080fd5b604081901b9050817fffffffffffffffffffffffffffffffffffffffffffffffffffffffffffffffff0381111562000bf057600080fd5b818101925050505b92915050565b600080820362000c0d57600080fd5b60008084121562000c2357836000039350600190505b600083121562000c3857826000039250801590505b600062000c4c858562000ccf60201b60201c565b9050811562000c93576f80000000000000000000000000000000816fffffffffffffffffffffffffffffffff16111562000c8557600080fd5b806000039250505062000cc9565b6f7fffffffffffffffffffffffffffffff816fffffffffffffffffffffffffffffffff16111562000cc357600080fd5b80925050505b92915050565b600080820362000cde57600080fd5b600077ffffffffffffffffffffffffffffffffffffffffffffffff841162000d205782604085901b8162000d175762000d1662001615565b5b04905062000e9a565b600060c09050600060c086901c9050640100000000811062000d4a57602081901c90506020820191505b62010000811062000d6357601081901c90506010820191505b610100811062000d7b57600881901c90506008820191505b6010811062000d9257600481901c90506004820191505b6004811062000da957600281901c90506002820191505b6002811062000db9576001820191505b600160bf830360018703901c018260ff0387901b8162000dde5762000ddd62001615565b5b0492506fffffffffffffffffffffffffffffffff83111562000dff57600080fd5b6000608086901c8402905060006fffffffffffffffffffffffffffffffff871685029050600060c089901c9050600060408a901b90508281101562000e45576001820391505b8281039050608084901b92508281101562000e61576001820391505b8281039050608084901c821462000e7a57600162000e8f565b88818162000e8d5762000e8c62001615565b5b045b870196505050505050505b6fffffffffffffffffffffffffffffffff81111562000eb857600080fd5b8091505092915050565b6000604051905090565b600080fd5b600080fd5b600080fd5b6000601f19601f8301169050919050565b7f4e487b7100000000000000000000000000000000000000000000000000000000600052604160045260246000fd5b62000f268262000edb565b810181811067ffffffffffffffff8211171562000f485762000f4762000eec565b5b80604052505050565b600062000f5d62000ec2565b905062000f6b828262000f1b565b919050565b600067ffffffffffffffff82111562000f8e5762000f8d62000eec565b5b602082029050602081019050919050565b600080fd5b600073ffffffffffffffffffffffffffffffffffffffff82169050919050565b600062000fd18262000fa4565b9050919050565b62000fe38162000fc4565b811462000fef57600080fd5b50565b600081519050620010038162000fd8565b92915050565b6000620010206200101a8462000f70565b62000f51565b9050808382526020820190506020840283018581111562001046576200104562000f9f565b5b835b818110156200107357806200105e888262000ff2565b84526020840193505060208101905062001048565b5050509392505050565b600082601f83011262001095576200109462000ed6565b5b8151620010a784826020860162001009565b91505092915050565b600080600060608486031215620010cc57620010cb62000ecc565b5b600084015167ffffffffffffffff811115620010ed57620010ec62000ed1565b5b620010fb868287016200107d565b93505060206200110e8682870162000ff2565b9250506040620011218682870162000ff2565b9150509250925092565b7f4e487b7100000000000000000000000000000000000000000000000000000000600052603260045260246000fd5b60006020828403121562001173576200117262000ecc565b5b6000620011838482850162000ff2565b91505092915050565b6000819050919050565b7f4e487b7100000000000000000000000000000000000000000000000000000000600052601160045260246000fd5b6000620011d2826200118c565b9150620011df836200118c565b9250828201905080821115620011fa57620011f962001196565b5b92915050565b60006200120d826200118c565b91507fffffffffffffffffffffffffffffffffffffffffffffffffffffffffffffffff820362001242576200124162001196565b5b600182019050919050565b600081519050919050565b600082825260208201905092915050565b6000819050602082019050919050565b62001284816200118c565b82525050565b600062001298838362001279565b60208301905092915050565b6000602082019050919050565b6000620012be826200124d565b620012ca818562001258565b9350620012d78362001269565b8060005b838110156200130e578151620012f288826200128a565b9750620012ff83620012a4565b925050600181019050620012db565b5085935050505092915050565b60006020820190508181036000830152620013378184620012b1565b905092915050565b60006dffffffffffffffffffffffffffff82169050919050565b62001364816200133f565b81146200137057600080fd5b50565b600081519050620013848162001359565b92915050565b600063ffffffff82169050919050565b620013a5816200138a565b8114620013b157600080fd5b50565b600081519050620013c5816200139a565b92915050565b600080600060608486031215620013e757620013e662000ecc565b5b6000620013f78682870162001373565b93505060206200140a8682870162001373565b92505060406200141d86828701620013b4565b9150509250925092565b600060ff82169050919050565b6000620014418262001427565b91506200144e8362001427565b9250828203905060ff8111156200146a576200146962001196565b5b92915050565b60008160011c9050919050565b6000808291508390505b6001851115620014cf57808604811115620014a757620014a662001196565b5b6001851615620014b75780820291505b8081029050620014c78562001470565b945062001487565b94509492505050565b600082620014ea5760019050620015bd565b81620014fa5760009050620015bd565b81600181146200151357600281146200151e5762001554565b6001915050620015bd565b60ff84111562001533576200153262001196565b5b8360020a9150848211156200154d576200154c62001196565b5b50620015bd565b5060208310610133831016604e8410600b84101617156200158e5782820a90508381111562001588576200158762001196565b5b620015bd565b6200159d84848460016200147d565b92509050818404811115620015b757620015b662001196565b5b81810290505b9392505050565b6000620015d1826200118c565b9150620015de8362001427565b92506200160d7fffffffffffffffffffffffffffffffffffffffffffffffffffffffffffffffff8484620014d8565b905092915050565b7f4e487b7100000000000000000000000000000000000000000000000000000000600052601260045260246000fd5b600062001651826200118c565b91506200165e836200118c565b92508262001671576200167062001615565b5b828204905092915050565b600062001689826200118c565b915062001696836200118c565b9250828202620016a6816200118c565b91508282048414831517620016c057620016bf62001196565b5b5092915050565b620016d28162000fc4565b82525050565b6000604082019050620016ef6000830185620016c7565b620016fe6020830184620016c7565b9392505050565b600081519050919050565b600081905092915050565b60005b838110156200173b5780820151818401526020810190506200171e565b60008484015250505050565b6000620017548262001705565b62001760818562001710565b9350620017728185602086016200171b565b80840191505092915050565b60006200178c828462001747565b915081905092915050565b620017a2816200118c565b8114620017ae57600080fd5b50565b600081519050620017c28162001797565b92915050565b600060208284031215620017e157620017e062000ecc565b5b6000620017f184828501620017b1565b9150509291505056fe",
    "linkReferences": {}
  },
  "deployedBytecode": {
    "object": "0x608060405234801561001057600080fd5b506004361061002b5760003560e01c80630ed45c8e14610030575b600080fd5b61004a600480360381019061004591906100f2565b610060565b604051610057919061014a565b60405180910390f35b60006020528060005260406000206000915054906101000a90046fffffffffffffffffffffffffffffffff1681565b600080fd5b600073ffffffffffffffffffffffffffffffffffffffff82169050919050565b60006100bf82610094565b9050919050565b6100cf816100b4565b81146100da57600080fd5b50565b6000813590506100ec816100c6565b92915050565b6000602082840312156101085761010761008f565b5b6000610116848285016100dd565b91505092915050565b60006fffffffffffffffffffffffffffffffff82169050919050565b6101448161011f565b82525050565b600060208201905061015f600083018461013b565b9291505056fea2646970667358221220481d06a53c8257c5b0722914e62d2e004f4545425b4ac930da30a97153486c5564736f6c63430008150033",
    "linkReferences": {}
  },
  "methodIdentifiers": {
    "tokenToWethPrices(address)": "0ed45c8e"
  },
  "id": 2
}