{
  "abi": [
    {
      "inputs": [
        {
          "internalType": "address[]",
          "name": "pools",
          "type": "address[]"
        },
        {
          "internalType": "address",
          "name": "dex",
          "type": "address"
        },
        {
          "internalType": "address",
          "name": "weth",
          "type": "address"
        }
      ],
      "stateMutability": "nonpayable",
      "type": "constructor"
    },
    {
      "inputs": [
        {
          "internalType": "address",
          "name": "",
          "type": "address"
        }
      ],
      "name": "tokenToWethPrices",
      "outputs": [
        {
          "internalType": "uint128",
          "name": "",
          "type": "uint128"
        }
      ],
      "stateMutability": "view",
      "type": "function"
    }
  ],
  "bytecode": {
    "object": "0x60806040523480156200001157600080fd5b5060405162001e5538038062001e5583398181016040528101906200003791906200154a565b6000835167ffffffffffffffff81111562000057576200005662001386565b5b604051908082528060200260200182016040528015620000865781602001602082028036833780820191505090505b50905060005b8451811015620003cc57620000c4858281518110620000b057620000af620015c5565b5b6020026020010151620003fd60201b60201c565b15620000f4576000828281518110620000e257620000e1620015c5565b5b602002602001018181525050620003b8565b620001228582815181106200010e576200010d620015c5565b5b6020026020010151620004b660201b60201c565b620003925760008582815181106200013f576200013e620015c5565b5b602002602001015173ffffffffffffffffffffffffffffffffffffffff16630dfe16816040518163ffffffff1660e01b8152600401602060405180830381865afa15801562000192573d6000803e3d6000fd5b505050506040513d601f19601f82011682018060405250810190620001b89190620015f4565b90506000868381518110620001d257620001d1620015c5565b5b602002602001015173ffffffffffffffffffffffffffffffffffffffff1663d21220a76040518163ffffffff1660e01b8152600401602060405180830381865afa15801562000225573d6000803e3d6000fd5b505050506040513d601f19601f820116820180604052508101906200024b9190620015f4565b90506200025e82620004b660201b60201c565b1580156200027a57506200027881620004b660201b60201c565b155b156200036557600080620002b38986815181106200029d576200029c620015c5565b5b60200260200101518585620004eb60201b60201c565b915091506000620002cd8589858c620005a260201b60201c565b90506000620002e5858a858d620005a260201b60201c565b905060008214158015620002fa575060008114155b15620003365780826200030e91906200165f565b888881518110620003245762000323620015c5565b5b6020026020010181815250506200035b565b60008888815181106200034e576200034d620015c5565b5b6020026020010181815250505b505050506200038a565b60008484815181106200037d576200037c620015c5565b5b6020026020010181815250505b5050620003b7565b6000828281518110620003aa57620003a9620015c5565b5b6020026020010181815250505b5b80620003c4906200169a565b90506200008c565b50600081604051602001620003e29190620017b5565b60405160208183030381529060405290506020810180590381f35b60006200041082620006f960201b60201c565b620004ac5760008273ffffffffffffffffffffffffffffffffffffffff16631a6865026040518163ffffffff1660e01b8152600401602060405180830381865afa15801562000463573d6000803e3d6000fd5b505050506040513d601f19601f8201168201806040525081019062000489919062001826565b6fffffffffffffffffffffffffffffffff1603620004ab5760019050620004b1565b5b600090505b919050565b6000808273ffffffffffffffffffffffffffffffffffffffff163b03620004e15760019050620004e6565b600090505b919050565b600080600080620005048787876200073760201b60201c565b915091506200059482828773ffffffffffffffffffffffffffffffffffffffff168973ffffffffffffffffffffffffffffffffffffffff16106200054957876200054b565b885b8873ffffffffffffffffffffffffffffffffffffffff168a73ffffffffffffffffffffffffffffffffffffffff161062000586578962000588565b885b620008e460201b60201c565b935093505050935093915050565b60008373ffffffffffffffffffffffffffffffffffffffff168573ffffffffffffffffffffffffffffffffffffffff1603620005e157829050620006f1565b60008060008773ffffffffffffffffffffffffffffffffffffffff1673ffffffffffffffffffffffffffffffffffffffff16815260200190815260200160002060009054906101000a90046fffffffffffffffffffffffffffffffff1690506001816fffffffffffffffffffffffffffffffff160362000666576000915050620006f1565b6000816fffffffffffffffffffffffffffffffff16146200069c5762000693818562000a0a60201b60201c565b915050620006f1565b6000620006b187878662000b6460201b60201c565b90506000816fffffffffffffffffffffffffffffffff1614620006ea57620006e0818662000a0a60201b60201c565b92505050620006f1565b5060009150505b949350505050565b6000807fddca3f43000000000000000000000000000000000000000000000000000000006000526000806004600080875af190508015915050919050565b6000808273ffffffffffffffffffffffffffffffffffffffff168473ffffffffffffffffffffffffffffffffffffffff16106200077657828462000779565b83835b80945081955050506000806200079587620006f960201b60201c565b1562000843576000808873ffffffffffffffffffffffffffffffffffffffff16630902f1ac6040518163ffffffff1660e01b8152600401606060405180830381865afa158015620007ea573d6000803e3d6000fd5b505050506040513d601f19601f82011682018060405250810190620008109190620018e4565b5091509150816dffffffffffffffffffffffffffff169350806dffffffffffffffffffffffffffff1692505050620008d4565b60008062000858888a62000d3260201b60201c565b9150915060008062000871898c62000d3260201b60201c565b91509150828015620008805750805b15620008cf578873ffffffffffffffffffffffffffffffffffffffff168a73ffffffffffffffffffffffffffffffffffffffff161015620008c757839550819450620008ce565b8394508195505b5b505050505b8181935093505050935093915050565b600080600080620008fb8662000e9360201b60201c565b91509150600080620009138762000e9360201b60201c565b91509150828015620009225750805b15620009fd5760128460ff16111562000965576012846200094491906200194d565b600a62000952919062001add565b8a6200095f919062001b5d565b62000990565b8360126200097491906200194d565b600a62000982919062001add565b8a6200098f919062001b95565b5b955060128260ff161115620009cf57601282620009ae91906200194d565b600a620009bc919062001add565b89620009c9919062001b5d565b620009fa565b816012620009de91906200194d565b600a620009ec919062001add565b89620009f9919062001b95565b5b94505b5050505094509492505050565b60008082148062000a2d57506000836fffffffffffffffffffffffffffffffff16145b1562000a3d576000905062000b5e565b600060406fffffffffffffffffffffffffffffffff8416856fffffffffffffffffffffffffffffffff1602901c90506000608084901c856fffffffffffffffffffffffffffffffff1602905077ffffffffffffffffffffffffffffffffffffffffffffffff81111562000ae7576040517f08c379a000000000000000000000000000000000000000000000000000000000815260040162000ade9062001c41565b60405180910390fd5b604081901b9050817fffffffffffffffffffffffffffffffffffffffffffffffffffffffffffffffff0381111562000b56576040517f08c379a000000000000000000000000000000000000000000000000000000000815260040162000b4d9062001cb3565b60405180910390fd5b818101925050505b92915050565b6000808373ffffffffffffffffffffffffffffffffffffffff168573ffffffffffffffffffffffffffffffffffffffff1610905060008373ffffffffffffffffffffffffffffffffffffffff1663e6a439058362000bc3578662000bc5565b875b8462000bd2578862000bd4565b875b6040518363ffffffff1660e01b815260040162000bf392919062001ce6565b602060405180830381865afa15801562000c11573d6000803e3d6000fd5b505050506040513d601f19601f8201168201806040525081019062000c379190620015f4565b9050600073ffffffffffffffffffffffffffffffffffffffff168173ffffffffffffffffffffffffffffffffffffffff161462000cae57600062000c838787846200100b60201b60201c565b90506000816fffffffffffffffffffffffffffffffff161462000cac5780935050505062000d2b565b505b60016000808873ffffffffffffffffffffffffffffffffffffffff1673ffffffffffffffffffffffffffffffffffffffff16815260200190815260200160002060006101000a8154816fffffffffffffffffffffffffffffffff02191690836fffffffffffffffffffffffffffffffff1602179055506000925050505b9392505050565b6000806000808573ffffffffffffffffffffffffffffffffffffffff168560405160240162000d62919062001d13565b6040516020818303038152906040527f70a08231000000000000000000000000000000000000000000000000000000007bffffffffffffffffffffffffffffffffffffffffffffffffffffffff19166020820180517bffffffffffffffffffffffffffffffffffffffffffffffffffffffff838183161783525050505060405162000dee919062001da9565b6000604051808303816000865af19150503d806000811462000e2d576040519150601f19603f3d011682016040523d82523d6000602084013e62000e32565b606091505b5091509150811562000e82576000602082510362000e72578180602001905181019062000e60919062001df3565b90508060019450945050505062000e8c565b6000809450945050505062000e8c565b6000809350935050505b9250929050565b6000806000808473ffffffffffffffffffffffffffffffffffffffff166040516024016040516020818303038152906040527f313ce567000000000000000000000000000000000000000000000000000000007bffffffffffffffffffffffffffffffffffffffffffffffffffffffff19166020820180517bffffffffffffffffffffffffffffffffffffffffffffffffffffffff838183161783525050505060405162000f42919062001da9565b6000604051808303816000865af19150503d806000811462000f81576040519150601f19603f3d011682016040523d82523d6000602084013e62000f86565b606091505b5091509150811562000ffc576000602082510362000fec578180602001905181019062000fb4919062001df3565b9050600081148062000fc6575060ff81115b1562000fdc576000809450945050505062001006565b8060019450945050505062001006565b6000809450945050505062001006565b6000809350935050505b915091565b6000808373ffffffffffffffffffffffffffffffffffffffff168573ffffffffffffffffffffffffffffffffffffffff1610905060008062001055858888620004eb60201b60201c565b9150915082156200108457670de0b6b3a76400008110156200107e57600093505050506200114c565b620010a3565b670de0b6b3a7640000821015620010a257600093505050506200114c565b5b620010d183620010b45782620010b6565b815b84620010c35782620010c5565b835b6200115360201b60201c565b9350836000808973ffffffffffffffffffffffffffffffffffffffff1673ffffffffffffffffffffffffffffffffffffffff16815260200190815260200160002060006101000a8154816fffffffffffffffffffffffffffffffff02191690836fffffffffffffffffffffffffffffffff1602179055505050505b9392505050565b600080820362001167576000905062001356565b600077ffffffffffffffffffffffffffffffffffffffffffffffff8411620011a95782604085901b81620011a0576200119f62001b2e565b5b0490506200132d565b600060c09050600060c086901c90506401000000008110620011d357602081901c90506020820191505b620100008110620011ec57601081901c90506010820191505b61010081106200120457600881901c90506008820191505b601081106200121b57600481901c90506004820191505b600481106200123257600281901c90506002820191505b6002811062001242576001820191505b600160bf830360018703901c018260ff0387901b8162001267576200126662001b2e565b5b0492506fffffffffffffffffffffffffffffffff83111562001290576000935050505062001356565b6000608086901c8402905060006fffffffffffffffffffffffffffffffff871685029050600060c089901c9050600060408a901b905082811015620012d6576001820391505b8281039050608084901b925082811015620012f2576001820391505b8281039050608084901c82146200130e576200130d62001e25565b5b88818162001321576200132062001b2e565b5b04870196505050505050505b6fffffffffffffffffffffffffffffffff8111156200135157600091505062001356565b809150505b92915050565b6000604051905090565b600080fd5b600080fd5b600080fd5b6000601f19601f8301169050919050565b7f4e487b7100000000000000000000000000000000000000000000000000000000600052604160045260246000fd5b620013c08262001375565b810181811067ffffffffffffffff82111715620013e257620013e162001386565b5b80604052505050565b6000620013f76200135c565b9050620014058282620013b5565b919050565b600067ffffffffffffffff82111562001428576200142762001386565b5b602082029050602081019050919050565b600080fd5b600073ffffffffffffffffffffffffffffffffffffffff82169050919050565b60006200146b826200143e565b9050919050565b6200147d816200145e565b81146200148957600080fd5b50565b6000815190506200149d8162001472565b92915050565b6000620014ba620014b4846200140a565b620013eb565b90508083825260208201905060208402830185811115620014e057620014df62001439565b5b835b818110156200150d5780620014f888826200148c565b845260208401935050602081019050620014e2565b5050509392505050565b600082601f8301126200152f576200152e62001370565b5b815162001541848260208601620014a3565b91505092915050565b60008060006060848603121562001566576200156562001366565b5b600084015167ffffffffffffffff8111156200158757620015866200136b565b5b620015958682870162001517565b9350506020620015a8868287016200148c565b9250506040620015bb868287016200148c565b9150509250925092565b7f4e487b7100000000000000000000000000000000000000000000000000000000600052603260045260246000fd5b6000602082840312156200160d576200160c62001366565b5b60006200161d848285016200148c565b91505092915050565b6000819050919050565b7f4e487b7100000000000000000000000000000000000000000000000000000000600052601160045260246000fd5b60006200166c8262001626565b9150620016798362001626565b925082820190508082111562001694576200169362001630565b5b92915050565b6000620016a78262001626565b91507fffffffffffffffffffffffffffffffffffffffffffffffffffffffffffffffff8203620016dc57620016db62001630565b5b600182019050919050565b600081519050919050565b600082825260208201905092915050565b6000819050602082019050919050565b6200171e8162001626565b82525050565b600062001732838362001713565b60208301905092915050565b6000602082019050919050565b60006200175882620016e7565b620017648185620016f2565b9350620017718362001703565b8060005b83811015620017a85781516200178c888262001724565b975062001799836200173e565b92505060018101905062001775565b5085935050505092915050565b60006020820190508181036000830152620017d181846200174b565b905092915050565b60006fffffffffffffffffffffffffffffffff82169050919050565b6200180081620017d9565b81146200180c57600080fd5b50565b6000815190506200182081620017f5565b92915050565b6000602082840312156200183f576200183e62001366565b5b60006200184f848285016200180f565b91505092915050565b60006dffffffffffffffffffffffffffff82169050919050565b6200187d8162001858565b81146200188957600080fd5b50565b6000815190506200189d8162001872565b92915050565b600063ffffffff82169050919050565b620018be81620018a3565b8114620018ca57600080fd5b50565b600081519050620018de81620018b3565b92915050565b6000806000606084860312156200190057620018ff62001366565b5b600062001910868287016200188c565b935050602062001923868287016200188c565b92505060406200193686828701620018cd565b9150509250925092565b600060ff82169050919050565b60006200195a8262001940565b9150620019678362001940565b9250828203905060ff81111562001983576200198262001630565b5b92915050565b60008160011c9050919050565b6000808291508390505b6001851115620019e857808604811115620019c057620019bf62001630565b5b6001851615620019d05780820291505b8081029050620019e08562001989565b9450620019a0565b94509492505050565b60008262001a03576001905062001ad6565b8162001a13576000905062001ad6565b816001811462001a2c576002811462001a375762001a6d565b600191505062001ad6565b60ff84111562001a4c5762001a4b62001630565b5b8360020a91508482111562001a665762001a6562001630565b5b5062001ad6565b5060208310610133831016604e8410600b841016171562001aa75782820a90508381111562001aa15762001aa062001630565b5b62001ad6565b62001ab6848484600162001996565b9250905081840481111562001ad05762001acf62001630565b5b81810290505b9392505050565b600062001aea8262001626565b915062001af78362001940565b925062001b267fffffffffffffffffffffffffffffffffffffffffffffffffffffffffffffffff8484620019f1565b905092915050565b7f4e487b7100000000000000000000000000000000000000000000000000000000600052601260045260246000fd5b600062001b6a8262001626565b915062001b778362001626565b92508262001b8a5762001b8962001b2e565b5b828204905092915050565b600062001ba28262001626565b915062001baf8362001626565b925082820262001bbf8162001626565b9150828204841483151762001bd95762001bd862001630565b5b5092915050565b600082825260208201905092915050565b7f6f766572666c6f772d3020696e206d756c363475000000000000000000000000600082015250565b600062001c2960148362001be0565b915062001c368262001bf1565b602082019050919050565b6000602082019050818103600083015262001c5c8162001c1a565b9050919050565b7f6f766572666c6f772d3120696e206d756c363475000000000000000000000000600082015250565b600062001c9b60148362001be0565b915062001ca88262001c63565b602082019050919050565b6000602082019050818103600083015262001cce8162001c8c565b9050919050565b62001ce0816200145e565b82525050565b600060408201905062001cfd600083018562001cd5565b62001d0c602083018462001cd5565b9392505050565b600060208201905062001d2a600083018462001cd5565b92915050565b600081519050919050565b600081905092915050565b60005b8381101562001d6657808201518184015260208101905062001d49565b60008484015250505050565b600062001d7f8262001d30565b62001d8b818562001d3b565b935062001d9d81856020860162001d46565b80840191505092915050565b600062001db7828462001d72565b915081905092915050565b62001dcd8162001626565b811462001dd957600080fd5b50565b60008151905062001ded8162001dc2565b92915050565b60006020828403121562001e0c5762001e0b62001366565b5b600062001e1c8482850162001ddc565b91505092915050565b7f4e487b7100000000000000000000000000000000000000000000000000000000600052600160045260246000fdfe",
    "linkReferences": {}
  },
  "deployedBytecode": {
    "object": "0x608060405234801561001057600080fd5b506004361061002b5760003560e01c80630ed45c8e14610030575b600080fd5b61004a600480360381019061004591906100f2565b610060565b604051610057919061014a565b60405180910390f35b60006020528060005260406000206000915054906101000a90046fffffffffffffffffffffffffffffffff1681565b600080fd5b600073ffffffffffffffffffffffffffffffffffffffff82169050919050565b60006100bf82610094565b9050919050565b6100cf816100b4565b81146100da57600080fd5b50565b6000813590506100ec816100c6565b92915050565b6000602082840312156101085761010761008f565b5b6000610116848285016100dd565b91505092915050565b60006fffffffffffffffffffffffffffffffff82169050919050565b6101448161011f565b82525050565b600060208201905061015f600083018461013b565b9291505056fea2646970667358221220f235b2d32800f6005b65fe448a7b9d9945b8f33fff9858bb9b719dc553b29db064736f6c63430008150033",
    "linkReferences": {}
  },
  "methodIdentifiers": {
    "tokenToWethPrices(address)": "0ed45c8e"
  },
  "id": 2
}